:020000040800F2
:10000000680C00202D020008F70A00086F0A00089B
:10001000F50A000883070008ED1A00080000000038
:10002000000000000000000000000000B113000804
:100030008507000800000000BD120008E114000858
:10004000470200084702000847020008470200086C
:10005000470200084702000847020008470200085C
:10006000470200084702000847020008470200084C
:10007000470200084702000847020008470200083C
:10008000470200084702000847020008470200082C
:10009000470200084702000847020008470200081C
:1000A000470200084702000847020008470200080C
:1000B000CD15000847020008F9150008470200089E
:1000C00047020008470200084702000847020008EC
:1000D0004702000875180008D918000847020008F0
:1000E00047020008470200084702000847020008CC
:1000F00047020008470200084702000847020008BC
:1001000047020008470200084702000847020008AB
:10011000470200084702000847020008470200089B
:10012000470200084702000847020008470200088B
:1001300000F002F800F06BF80AA090E8000C82448E
:100140008344AAF10107DA4501D100F060F8AFF26B
:10015000090EBAE80F0013F0010F18BFFB1A43F0A5
:100160000103184714350000343500000A444FF0ED
:10017000000C10F8013B13F0070408BF10F8014B06
:100180001D1108BF10F8015B641E05D010F8016B4B
:10019000641E01F8016BF9D113F0080F1EBF10F8AF
:1001A000014BAD1C0C1B09D16D1E58BF01F801CBD2
:1001B000FAD505E014F8016B01F8016B6D1EF9D555
:1001C0009142D6D37047000000230024002500266A
:1001D000103A28BF78C1FBD8520728BF30C148BFAA
:1001E0000B607047642900F09F80752900F09C80A7
:1001F000782900F00081632900F07282732900F0F1
:100200007782002070471FB51FBD10B510BD00F0EC
:100210008DFA1146FFF7F7FF01F0D0FC00F0ABFAC2
:1002200003B4FFF7F2FF03BC01F068FC0948804704
:1002300009480047FEE7FEE7FEE7FEE7FEE7FEE7C8
:10024000FEE7FEE7FEE7FEE704480549054A064BE0
:1002500070470000E514000831010008680600201E
:10026000680C002068080020680800207047000023
:100270000FB4044910B503AA029800F03DFA10BC6F
:100280005DF814FBC800002070B50446856900685D
:10029000C10601D5302600E02026C00707D070BD7A
:1002A000D4E9012130469047206A401C20626D1E2F
:1002B000F6D570BD70B5044685690078C00707D1D2
:1002C00070BDD4E9012120209047206A401C2062A3
:1002D0006D1EF6D570BD70B50C460546012A05D0D9
:1002E0002878800600D5EA69002302E0012305E0B2
:1002F0005B1C934202D2E05C0028F9D1A869E618A1
:10030000C01AA861286A184428622846FFF7BCFF73
:1003100004E0D5E9012114F8010B9047B442F8D369
:100320002846FFF7C7FF70BD2DE9F04106460024BF
:1003300010687529314616A510D0AFF3008000284B
:1003400002DA404213A507E031688A0701D512A5F9
:1003500002E0490704D511A5012401E0AFF30080B4
:1003600000210A2206F1240709E0B0FBF2FCB0FBF1
:10037000F2F302FB1C00303078541846491C002868
:10038000F3D123462A463046BDE8F04100F02CB9AF
:10039000000000002D0000002B00000020000000E5
:1003A000F0B40D460188090502D5214C7C4402E0D9
:1003B0001F4C7C440E34002100F1240608E002F0BA
:1003C0000F071209E75D42EA03721B097754491CC3
:1003D00052EA0307F3D102780023120704D5702DE7
:1003E00006D009B1022311342246F0BC00F0FCB85B
:1003F00001231034F8E770B504460D462146106815
:10040000AFF30080024629462046BDE87040002335
:10041000C6E7D21D22F00703D3E90023C0E7036833
:10042000126843F0200303600823C3610023B7E789
:100430003C3100002DE9F05F894604464FF0000A88
:10044000DFF874B1FB44C0F820A02046E16888477B
:10045000002874D0252806D0D4E901219047206ACD
:10046000401C2062F1E700265F462046E16888478D
:100470002028054607DB312D05D2781910F8200C0D
:1004800008B10643F1E7B00701D526F00406C4F829
:100490001CA00027C4F818A02A2D09D0284601F076
:1004A00026FB38B304EB8708303DC8F8185019E034
:1004B00059F8041B204604EB87029161E1688847E4
:1004C000012F054618D1E069002820DA26F0200621
:1004D0001DE0D8F8180000EB800005EB4000303834
:1004E000C8F818002046E1688847054601F0FFFA81
:1004F0000028EED1012F0AD02E2D08D12046E16828
:1005000088477F1C0546022F46F02006C4DBA06901
:10051000002803DA404246F00106A061F00701D04E
:1005200026F010066C2D0BD0682D09D04C2D39D03B
:100530006A2D35D0742D35D07A2D33D016E038E0C1
:10054000E1682F4620468847B842054609D16C2FFE
:1005500026D04FF48060E168064320468847054670
:1005600004E06C2F1AD04FF4807006430DB3A5F150
:100570004100192802D8203546F400664A4629462B
:10058000204626604E46FFF72DFE80B101280BD095
:10059000F61D26F0070000F1080956E74020E4E7C1
:1005A0008020D8E70020D6E706F104094DE7284669
:1005B00052E7206ABDE8F09FCC30000030B5054618
:1005C0000B462A4613F8014B12F8010B08B1A04262
:1005D000F8D01CB1002802D06D1CF1E7284630BDD0
:1005E00070477047704770472DE9F0470D469946B0
:1005F0009246044600F124080168880604D5E069A3
:1006000021F01001216000E00120A84201DD471B1C
:1006100000E00027A1697A1902EB0900081AA0611D
:100620002078C00602D42046FFF72EFE002608E000
:10063000D4E901211AF806009047206A401C761C74
:1006400020624E45F4DB2078C0060AD52046FFF72D
:100650001BFE06E0D4E9012130209047206A401CAF
:100660002062381EA7F10107F4DC07E0D4E901217C
:1006700018F805009047206A401C2062281EA5F14A
:100680000105F3DC2046FFF715FE2078000602D5B1
:100690000220BDE8F0870120FBE7000001694A1C49
:1006A00002610878704700B58FB0CDE901310021B3
:1006B000059105497944CDE9031011466846FFF7D5
:1006C000B9FE0FB000BD0000E5FFFFFF10B54369A4
:1006D00013B1AFF3008001E0FFF7FDFD012010BD75
:1006E000127800F124010A7000224A700122EDE71D
:1006F00011684FF0FF32E9E7074B70B50D467B44B8
:10070000FFF7D1FF0446284600F008F810B14FF07B
:10071000FF3070BD204670BDA3140000007B00F0C8
:100720008000704700487047080600207546FFF7B4
:10073000F9FFAE4605006946534620F0070085469E
:1007400018B020B5FFF780FDBDE820404FF000064F
:100750004FF000074FF000084FF0000B21F00701A9
:10076000AC46ACE8C009ACE8C009ACE8C009ACE8EC
:10077000C0098D4670470446AFF300802046FFF75E
:100780004FFDFEE77047000021283CD2DFE800F073
:1007900011131517191B1D1F212325273B3B3B3B1D
:1007A00027293B3B3B2B3B3B2D2F3133353B3B3705
:1007B000390016A0704716A0704719A070471DA0F9
:1007C000704721A0704728A070472FA0704735A020
:1007D000704742A0704744A0704747A070474AA0A6
:1007E00070474DA0704750A0704758A070475BA05D
:1007F00070475DA0704760A0704764A0704768A014
:1008000070476AA070476CA0704700004F4B000013
:10081000CAFDBEDDB0FCBDD3CAD5B4EDCEF3000039
:10082000B4ABB8D0C6F7C9CFC3BBD3D0CAD6D6B83D
:1008300000000000C2BCC8EBD6B8CEC6CDBCCFF11C
:10084000CAA7B0DC00000000D6B8CEC6CDBCCFF140
:10085000CCABB8C9A1A2CCABB5ADB6F8C9FAB2BBA6
:10086000B3C9CCD8D5F70000D6B8CEC6CDBCCFF131
:10087000CCABCAAAA1A2CCABBAFDB6F8C9FAB2BB3E
:10088000B3C9CCD8D5F70000D6B8CEC6CDBCCFF111
:10089000CCABC2D2B6F8C9FAB2BBB3C9CCD8D5F783
:1008A00000000000D6B8CEC6CDBCCFF1D5FDB3A3B5
:1008B000A3ACB5ABCCD8D5F7B5E3CCABC9D9A3A81D
:1008C000BBF2C3E6BBFDCCABD0A1A3A9B6F8C9FA75
:1008D000B2BBB3C9CCD8D5F700000000D6B8CEC69D
:1008E000B2BBC6A5C5E40000C3BBCBD1CBF7B5BD39
:1008F000D6B8CEC600000000CCD8D5F7BACFB2A289
:10090000CAA7B0DC00000000C9BEB3FDC4A3B0E5B7
:10091000CAA7B0DC00000000C7E5BFD5D6B8CEC678
:10092000BFE2CAA7B0DC0000BBBAB3E5C7F8C4DABF
:10093000C3BBD3D0D3D0D0A7D4ADCABCCDBCB6F83E
:10094000C9FAB2BBB3C9CDBCCFF10000B6C1D0B4B7
:1009500020464C41534820B3F6B4ED00CEB4B6A8BF
:10096000D2E5B4EDCEF30000CEDED0A7BCC4B4E631
:10097000C6F7BAC500000000BCC4B4E6C6F7C9E8B3
:10098000B6A8C4DAC8DDB4EDCEF30000BCC7CAC255
:10099000B1BED2B3C2EBD6B8B6A8B4EDCEF3000068
:1009A000D6B8CEC6BFE2C2FA00000000B5D8D6B7AE
:1009B000B4EDCEF300000000C4A3BFE9B7B5BBD8C7
:1009C000C8B7C8CFC2EBD3D0CEF30000F0B5CA7819
:1009D000002502F00F03D20601D58A7813430A7866
:1009E0004FF00F0E12F0FF0F4FF001021CD0046801
:1009F0000F8802FA05F63740B74211D14FEA850C4D
:100A00000EFA0CF724EA070703FA0CF43C43CF78FC
:100A1000282F02D0482F02D002E0466100E0066194
:100A20006D1C082DE4D304600C88FF2C1ED944688B
:100A30005FF0000606F1080702FA07F50F882F405D
:100A4000AF420FD14FEA860C0EFA0CF7BC4303FA03
:100A50000CF73C43CF78282F00D14561CF78482F41
:100A600000D10561761C082EE4D34460F0BDFEE79A
:100A70007CB50546EF208DF8000001208DF80100BF
:100A80001448154C0168080E8DF80200080C8DF80A
:100A90000300080A8DF8040007208DF805108DF872
:100AA000060000268DF8076026800CE0012001F08A
:100AB00045F82088000406D5268069460748FFF7D8
:100AC0007DFD002804D16D1E2D042D0CEED10020DB
:100AD0007CBD00001800002014000020200200202F
:100AE00003490A885206FCD50149091D0880704750
:100AF00000440040FEE7704770B50F23C4780178CA
:100B00000122F4B1144C2468457804F4E064C4F57F
:100B1000E064240AC4F10406E3408478B5401C4034
:100B20002C4301F1E021230181F80034007800F02A
:100B30001F018A404009800000F1E020C0F8002138
:100B400070BD01F01F0082404809800000F1E020E4
:100B5000C0F8802170BD00000CED00E002490843A0
:100B600002490860704700000000FA050CED00E043
:100B700070B506465FF0000404F1B000C0B200F0AA
:100B8000C3F9002000F0C0F9102000F0BDF90025E5
:100B9000304600F0BEF96D1CEDB2802DF8D3641C18
:100BA000E4B2082CE8D370BD2DE9F0410121042006
:100BB00000F09EFB0C4C4020102520800B4FE57070
:100BC0000326A67021463846FFF700FF01210420C6
:100BD00000F08EFB2580E570A67021463846BDE802
:100BE000F041FFF7F3BE00001C00002000080140A8
:100BF00070B500F0FBF8094C0120C4F89001C4F86E
:100C00009801022004F5C87400F0B2FF0025A56029
:100C1000022000F0ADFF256070BD00000000214201
:100C200070B500F0E3F8094C0125C4F8905100209C
:100C3000C4F89801022004F5C87400F099FFA5607B
:100C4000BDE87040022000F093BF00000000214288
:100C500070B5002400F0BCF80C4D0120C5F89801D7
:100C6000C5F89001022000F083FF07E0641CE4B2A5
:100C7000FA2C03D9FFF7D4FF012070BDD5F8180175
:100C80000028F3D1C5F8900170BD0000000021429A
:100C900070B5044600F0AAF809490020C1F8900197
:100CA00002460123E509C1F898516406240EC1F8F3
:100CB0009031C1F89001521CD2B2082AF2D370BD13
:100CC0000000214270B515460E460446FFF790FF1E
:100CD00000F08CF82046FFF7DBFFFFF7B9FF304646
:100CE000FFF7D6FFFFF7B4FF2846FFF7D1FFFFF766
:100CF000AFFFBDE87040FFF793BF10B5642000F070
:100D00001DFFFFF751FFAE2000F0FEF8202000F09D
:100D1000FBF8102000F0F8F8B02000F0F5F8C8203B
:100D200000F0F2F8002000F0EFF8102000F0ECF8EE
:100D3000402000F0E9F8812000F0E6F8FF2000F004
:100D4000E3F8A12000F0E0F8A62000F0DDF8A820EC
:100D500000F0DAF83F2000F0D7F8A42000F0D4F833
:100D6000D32000F0D1F8002000F0CEF8D52000F01C
:100D7000CBF8F02000F0C8F8D92000F0C5F8222008
:100D800000F0C2F8DA2000F0BFF8122000F0BCF842
:100D9000DB2000F0B9F8202000F0B6F88D2000F03C
:100DA000B3F8142000F0B0F8AF2000F0ADF800F078
:100DB00005F8BDE810400020FFF7DABE10B514209A
:100DC00000F0A2F8BDE81040AF2000F09DB8000090
:100DD0000448402101804821C17001460248FFF7C4
:100DE000F5BD00001C00002000080140044840211F
:100DF00001801021C17001460248FFF7E7BD0000E5
:100E00001C0000200008014010B50446B031C8B2F3
:100E100000F07AF8102040EA141000F075F804F0A1
:100E20000F00BDE8104040F0010000F06DB8000078
:100E30002DE9F047002591468A460446012B22D031
:100E4000DFF8BC80022B24D155E02038C7B27E2CBD
:100E500004D90AF10100002400F0FF0A514620469F
:100E6000FFF7D2FF07EB4700002608EB4007B85D0D
:100E700000F04FF8761CF6B2062EF8D3A41D6D1CB8
:100E8000E4B2EDB201E0DFF87C8019F8050000283B
:100E9000DBD1BDE8F0872038C7B2782C04D90AF13D
:100EA0000100002400F0FF0A51462046FFF7ACFF86
:100EB0005FF0000606EB071118F8010000F029F8B2
:100EC000761CF6B2082EF5D30AF10100C1B2204615
:100ED000FFF79AFF5FF0000606EB071101EB080031
:100EE000007A00F016F8761CF6B2082EF4D3083417
:100EF0006D1CE4B2EDB219F805000028CBD1C8E7AB
:100F0000FC2E0008D42C0008024600217820FFF7B0
:100F1000D9BE024640217820FFF7D4BE10B5044662
:100F200000F06AFA00F046FA0120FFF7D9FD04202C
:100F300000F06BFA0220FFF7D3FD2046FFF7D0FD4B
:100F4000E01D00F04FFA4FF4FA60FFF791FD08B191
:100F5000407A10BDFF2010BD10B500F04DFA00F032
:100F600029FA0120FFF7BCFD032000F04EFA012012
:100F7000FFF7B6FD052000F035FA4FF4FA60FFF7F1
:100F800077FD08B1407A10BDFF2010BD2DE9F0417A
:100F90001E4614460D46074600F02EFA00F00AFAE7
:100FA0000120FFF79DFD082000F02FFA1B20FFF71E
:100FB00097FD3846FFF794FD280AFFF791FDE8B248
:100FC000FFF78EFD200AFFF78BFDE0B2FFF788FDEB
:100FD00007EB1520E9B2084400EB1420E1B2084405
:100FE000243000F0FFF94FF4FA60FFF741FD58B1EB
:100FF000C27A837A417A02EB03223280427B007B01
:1010000002EB0020708000E0FF210846BDE8F0817F
:1010100070B5044600F0F0F900F0CCF90120FFF7BC
:101020005FFD032000F0F1F90F20FFF759FD1320B9
:1010300000F0D8F94FF47A70FFF71AFDC8B1C17B00
:10104000827B457A01EB022189B22180427CA27029
:10105000427D837C067D02EB0362C37C1B0403EBB1
:1010600006231A446260C27D2272407E60725DB1C6
:1010700000E0FF252846FFF787FB01460BA000BFD5
:10108000FFF7F6F8284670BD0AA0FFF7F1F8A1783F
:101090000EA0FFF7EDF811A06168FFF7E9F8617A9B
:1010A0004FF41650414310A0EAE700000D0A2573E3
:1010B000000000000D0AC4A3BFE9D7EEB4F3D6B810
:1010C000CEC6C8DDC1BF3D25640000000D0AB6D400
:1010D000B1C8B5C8BCB63D25640000000D0AB5D83E
:1010E000D6B73D25780000000D0AB2A8CCD8C2CAF8
:1010F0003D25640070B5044600F07EF900F05AF911
:101100000120FFF7EDFC072000F07FF91520FFF725
:10111000E7FC200EFFF7E4FCC4F307400546FFF7A9
:10112000DFFCC4F307200646FFF7DAFCE0B2FFF766
:10113000D7FC05EB14603044E1B208441D3000F0E8
:1011400051F90D4E4FF4FA603460FFF791FC18B17D
:10115000457A34605DB101E0FF2534602846FFF731
:1011600013FB014605A0FFF783F8284670BD05A0D4
:10117000FFF77EF8F9E70000180000200D0A25733C
:10118000000000000D0AC9E8D6C3B5D8D6B7B3C968
:10119000B9A6A3A10000000008B50121042000F0B9
:1011A000A7F88020ADF8000028208DF80300032068
:1011B0008DF8020069460248FFF708FC08BD0000F0
:1011C0000008014070B5054600F016F900F0F2F88D
:1011D0000120FFF785FC032000F017F91D20FFF721
:1011E0007FFC212000F0FEF84FF4FA60FFF740FC8E
:1011F00038B1C17A827A447A01EB022129805CB14C
:1012000000E0FF242046FFF7BFFA014605A000BF1B
:10121000FFF72EF8204670BDC17A807A01EB0021DD
:1012200002A0F5E70D0A2573000000000D0AD3D0D7
:10123000D0A7D6B8CEC6B8F6CAFD3D2564000000DA
:1012400070B50C46054600F0D7F800F0B3F8012061
:10125000FFF746FC052000F0D8F80E20FFF740FC11
:101260002846FFF73DFC2046FFF73AFC28191430CA
:1012700000F0B8F84FF4FA60FFF7FAFB10B1447AC7
:1012800054B100E0FF242046FFF77EFA014604A097
:10129000FEF7EEFF204670BD03A0FEF7E9FFF9E779
:1012A0000D0A2573000000000D0AC9E8D6C3B2CEAE
:1012B000CAFDB3C9B9A6A3A1000000007047000091
:1012C000044A0029D16901D0014300E08143D16182
:1012D0007047000000100240044A0029116901D043
:1012E000014300E08143116170470000001002409B
:1012F000044A0029916901D0014300E081439161D2
:101300007047000000100240044A0029D16801D053
:10131000014300E08143D1607047000000100240AB
:1013200030B51F494A6812F00C031E4A03D0042B43
:1013300001D0082B21D002604A680F231A4C03EA1F
:101340001212A35C0268DA4042604B68072505EA86
:101350001323E35C22FA03F383604B6805EAD3238B
:10136000E35CDA40C2604968032303EA9131231F3A
:10137000595CB2FBF1F1016130BD4A684B6802F47F
:1013800070124FF0020413F4803F04EB924202D03B
:101390004B689B0301D5054B00E0024B5A43CAE75B
:1013A0000010024000127A00D000002000093D0029
:1013B0007047000010B50A4C2068000EFFF790FB44
:1013C0002068C0F30740FFF78BFB2088C0F307209D
:1013D000FFF786FB2078BDE81040FFF781BB0000D7
:1013E0001800002010B50446000AFFF779FBE0B2B0
:1013F000BDE81040FFF774BB10B5EF20FFF770FB9E
:10140000BDE810400120FFF76BBB10B50446C0F3E8
:101410000720FFF765FBE0B2BDE81040FFF760BBB7
:101420000CB50021264801910091026842F48032F7
:1014300002604FF4A063026802F400320092019A45
:10144000521C0192009A12B9019A9A42F3D1026891
:10145000920333D5012100911A490A6842F0100223
:101460000A600A6822F003020A600A6842F0020277
:101470000A604168416041684160416841F48061AF
:101480004160416821F47C114160416841F4E811F8
:101490004160016841F08071016001688901FCD5FB
:1014A000416821F003014160416841F0020141605F
:1014B0004168C1F381010229FAD10CBD00910CBD34
:1014C00000100240002002404FF0E021042808698B
:1014D00003D020F004000861704740F00400FAE7F0
:1014E000704700000F4810B5016841F0010101602C
:1014F00041680D4A1140416001680C4A1140016089
:10150000016821F480210160416821F4FE014160FD
:101510004FF41F018160FFF783FF05494FF0006022
:10152000086010BD001002400000FFF8FFFFF6FE4B
:1015300008ED00E030B50C460546012189B0C8022F
:10154000FFF7D6FE01210420FFF7D2FE4FF4807092
:10155000ADF81C0018208DF81F0003208DF81E0028
:1015600007A91848FFF732FAADF81450ADF810404B
:101570000024154DADF81640ADF8124004A92846D8
:1015800000F006F97020ADF800000120ADF802006F
:10159000ADF80640ADF808406946284600F0AEF8C0
:1015A0000121284600F08BF80821284600F0E6F8D3
:1015B0000121284600F06CF80121284600F075F85A
:1015C00009B030BD00080140002C014010B54FF0BB
:1015D0008044208AC00707D0064800698047002061
:1015E000A0844FF47A70A085208A20F00100208228
:1015F00010BD00002C01002010B50B4C012120462D
:1016000000F068F800280ED00848018841F4004135
:1016100001800121204600F045F82046BDE8104039
:10162000002100F042B810BD000800401400002066
:101630007FB50C46054601210420FFF741FEADF8B9
:101640000450ADF800400024104DADF80640ADF850
:1016500002406946284600F09BF8012211462846C0
:1016600000F044F80121284600F01FF81E208DF8F4
:101670000C008DF80D4002208DF80E0001208DF831
:101680000F0003A8FFF738FA7FBD000000080040F4
:101690000029018802D041F0800101E021F08001A1
:1016A00001807047C943018270470029018802D038
:1016B00041F0010101E021F00101018070470029A2
:1016C00030F8441F02D041F4004101E0C1F30E01A3
:1016D0000180704702460020138A92890B4202EA79
:1016E000010202D0002A00D001207047002A82891E
:1016F00001D00A4300E08A438281704730B5028CF2
:1017000022F001020284028C8388048B22F0020200
:1017100024F073050C882C430D8915434A882A430D
:10172000114DA8420BD0114DA84208D0104DA8422F
:1017300005D0104DA84202D00F4DA8420DD122F085
:1017400008054A8923F440732A4322F004058A8855
:101750002A438D891D43CB892B4383800483C98809
:101760008186028430BD0000002C0140003401401D
:10177000004001400044014000480140028B22F03B
:1017800008020A430283704781867047818470474C
:1017900030B502881B4B1C4C98420DD0A0420BD098
:1017A000B0F1804F08D0194DA84205D0184DA8427D
:1017B00002D0184DA84203D122F070054A882A436E
:1017C000154DA84206D0154DA84203D022F440750D
:1017D000CA882A4302808A8882850A8802859842BC
:1017E0000AD0A04208D00E4A904205D00D4A90423D
:1017F00002D00D4A904201D1097A018601218182ED
:1018000030BD0000002C01400034014000040040C5
:1018100000080040000C0040001000400014004090
:10182000004001400044014000480140104A08B512
:10183000D36943F00103D3619204908511859089A7
:1018400040F001009081108840F0010010801C20C1
:101850008DF8000003208DF8010002208DF80200B1
:1018600001208DF803006846FFF746F908BD000027
:101870000010024070B5154C40F22551204600F092
:10188000A3F800280ED0204600F02CF9C2B2104870
:1018900001880B0406D44C044FF0000306D50A2A35
:1018A00001D0038070BD41F400410DE00D2A09D044
:1018B000C1F30D04074D491C89B22A550180C7297F
:1018C000EFD870BD41F48041018070BD0038014007
:1018D000C40000204005002070B5154C40F2255191
:1018E000204600F071F800281CD0204600F0FAF8DD
:1018F000104CC5B22088000414D42088B0F5C87FED
:1019000011D20D4E00213046FFF740FF208818B954
:1019100001213046FFF7C9FE208808490144401CD8
:1019200020800D7070BD208840F40040208070BD84
:101930000044004014000020000800402002002065
:101940000029818902D041F4005101E021F40051C5
:1019500081817047174910B588420AD101218C0353
:101960002046FFF7D1FC2046BDE810400021FFF7DC
:10197000CBBC1149884202D101214C0410E00F492F
:10198000884202D101218C040AE00D49884202D12B
:101990000121CC0404E00B4988420AD101210C0545
:1019A0002046FFF799FC2046BDE810400021FFF7D4
:1019B00093BC10BD00380140004400400048004086
:1019C000004C00400050004030B501F01F020124DF
:1019D0000025C1F3421304FA02F2012B0FD0022BAF
:1019E0000FD0838A4FEA11210088134204FA01F4D0
:1019F00000EA040001D000B10125284630BD8389EA
:101A0000F0E7038AEEE710B5C1F3421301F01F04BB
:101A10000121A140012B07D0022B07D01430002A4E
:101A2000026805D00A4304E00C30F8E71030F6E70E
:101A30008A43026010BD000030B50446008A85B0BC
:101A40000D464CF6FF710840E98801432182A189C7
:101A50004EF6F3100140A8882A8910436A890A4388
:101A60001043A081A08A4FF6FF410840A989014395
:101A7000A1826846FFF754FC1948844201D10398BB
:101A800000E00298A189090400EBC00101EB0010FD
:101A9000296801D5490000E08900B0FBF1F064221B
:101AA000B0FBF2F109010B096FF018056B4300EB75
:101AB0008300A3891D044FF0320306D503EBC00059
:101AC000B0FBF2F000F0070005E003EB0010B0FB04
:101AD000F2F000F00F000843208105B030BD000097
:101AE000003801408088C0F308007047FEE73038B6
:101AF0000A2801D20120704700207047704700007B
:101B000010B56FF00400FFF7DFFC094809490068D1
:101B1000B0FBF1F0C1B2084801EB41020170C2EB29
:101B2000C1114FF6FF7202EAC101418010BD0000F1
:101B30000000002000127A00C00000200B494988F4
:101B400048434FF0E021486100228A61086940F073
:101B5000010008610869C30701D0C003FAD508690C
:101B600020F0010008618A6170470000C000002079
:101B70000B49097848434FF0E021486100228A610F
:101B8000086940F0010008610869C30701D0C0037B
:101B9000FAD5086920F0010008618A6170470000E9
:101BA000C000002004490A885206FCD5024AC1B28E
:101BB000121D118070470000003801404FF4A060F2
:101BC000FEF7CCFFFFF79CFF4FF4E13000F0BEF8CA
:101BD000FFF7E2FAC72141F61F40FFF7ABFCFFF722
:101BE0008CF8FFF7EBF80020FEF7C2FF084E094C17
:101BF00041F6691529463046FFF7C6FDD4F81C01A9
:101C000008B100F009F8D4F81C010028FBD0F1E776
:101C1000002C01400000214238B5FFF79DF9002853
:101C20002DD1FEF7A5FF012328A202210020FFF7F6
:101C3000FFF80120FFF772F9E8B9012328A2032178
:101C40000020FFF7F5F82B490120C1F8B4016B46DD
:101C50004FF496720021FFF799F94FF0010378B124
:101C600025A202210020FFF7E3F8022328A2052184
:101C70000020FFF7DDF84FF47A70FFF75FFF38BD03
:101C800026A204210020FFF7D3F8012328A2052172
:101C90000020FFF7CDF82B4C41F6F9212046FFF745
:101CA00073FD41F288352846FFF748FF2846FFF7C5
:101CB00045FF2846FFF742FF2846FFF73FFF41F662
:101CC00069112046FFF760FDD5E7000047657420E5
:101CD000696D616765207375636365656400000005
:101CE0004372656174206368617261637465722117
:101CF000000000000000224266696E676572707223
:101D0000696E742069732077726F6E67210000001E
:101D10006675636B206F66662100000066696E64FD
:101D20002066696E6765727072696E7421000000CA
:101D300077656C636F6D6520746F203330323821A6
:101D400000000000002C01400068704770B5044698
:101D500086B001210420FFF7CBFA01214804FFF7E8
:101D6000AFFA284E3046FFF7F5FD0420ADF810001D
:101D700003258DF8125018208DF8130004A922486D
:101D8000FEF724FE0820ADF8100048208DF813005F
:101D900004A91E48FEF71AFE00940024ADF808407E
:101DA0000C20ADF80440ADF80A00ADF80640ADF8DF
:101DB0000C4069463046FFF73FFE01213046FFF7F1
:101DC000BFFD012240F225513046FFF71CFE2620C0
:101DD0008DF8140002208DF815008DF816500120A2
:101DE0008DF8170005A8FEF787FE41F61F41632016
:101DF000FFF71EFC0648048000210648FFF755FC4B
:101E000006B070BD0044004000080140000C0140D5
:101E1000140000200008004070B596B0054614ABD1
:101E200001AA03A900F0DAF9002824D18DF84C00AA
:101E30001D4C042615E000BF216806EBC00014AB62
:101E400008586A460BA900F0C9F9002813D103A964
:101E50000BA800F0E6FB80B19DF84C00401C8DF80B
:101E60004C00217DC0B28142E6D8207D9DF84C1007
:101E700088420ED1042016B070BD9DF800009DF878
:101E80000410884201D90220F5E79DF84C00A075A6
:101E9000EBE713A9284600F059FA0028EBD19DF88A
:101EA0004C0060750020E6E72C0100202DE9F04190
:101EB0007F4C00269AB0A57D207DA8427CD90421C4
:101EC000206801EBC50119AB405810AA11A900F018
:101ED00085F911A977A0FEF7CBF900270DF11808B5
:101EE00032E0208B0121B940084217D0222173A093
:101EF000FEF7BEF9384600F093FA011970A02431BC
:101F0000FEF7B6F922216DA0FEF7B2F9384600F0CF
:101F100087FA2044243048F827000BE0384600F0C8
:101F20007FFA2044416A48F82710E07D00B365A09D
:101F3000FEF79EF99DF84000401E874202D063A044
:101F4000FEF796F97F1CFFB29DF840008742C8D388
:101F50005FA0FEF78DF900F0A5FA607D0B2814D282
:101F6000DFE800F0080D31384048525E6B78880099
:101F700058A0DDE7206850F83500804704E020686D
:101F800050F8351006988847064600F05BFA9DF831
:101F9000640001287DD050A0FEF76AF994F8EC00A7
:101FA00000280DD0D4F8F0100A20B1FBF0F200FBAD
:101FB0001212B1FBF0F100E002E048A0FEF758F980
:101FC0001AB0BDE8F081206850F83520DDE906013F
:101FD0009047D9E7206806AE50F8353096E80700FC
:101FE0009847D1E7206806AE50F8355096E80F00C4
:101FF000A847C9E70A980090206806AE50F8355007
:1020000096E80F00A847BFE7DDE90A01CDE9000126
:10201000206806AE50F8355096E80F00A847B3E7A1
:102020000AAB06AE93E807008DE80700206850F879
:10203000355096E80F00A847A6E70AAE96E80F00CD
:102040008DE80F00206806AE50F8355096E80F0076
:10205000A84799E70BAE96E80F0001AE86E80F009F
:102060000A980090206806AE50F8355096E80F00A8
:10207000A84789E70CAE96E80F0002AE86E80F008D
:10208000DDE90A01CDE90001206806AE50F83550BF
:1020900000E003E096E80F00A84775E7E07D3146D1
:1020A00018B116A0FEF7E4F878E717A0FAE70000E9
:1020B0002C0100200D0A2573280000002563000074
:1020C0002573000030582558000000002C00000047
:1020D00029000000256C75003B0D0A0046756E63F3
:1020E00074696F6E2052756E2054696D653A25646F
:1020F0002E2531646D730D0A000000000D0A3D307D
:102100005825583B0D0A00003D256C753B0D0A0013
:10211000F0B50446002007460646054623782C2BDA
:1021200003D0292B04D01BB103E015B9012700E02F
:1021300065B31EB1222B27D047BB2BE0A3F1300C97
:10214000BCF1090F15D9A3F1610CBCF1050F10D931
:10215000A3F1410CBCF1050F0BD9582B09D0782BFA
:1021600007D0222B0CD0202B1DD02C2B1BD0FF26D0
:102170000CE05FB9612B00D3203B01F8013B12E07A
:1021800027B9012635460EE0002567B100230B7004
:102190001670F0BD3DB15C2B02D1401CC0B2641C76
:1021A000237801F8013B401CC0B2641CB6E730B58F
:1021B000002515700AE001F8014B1478401C641CDE
:1021C000E4B214709C4201D3012030BD0478202C6D
:1021D00001D0002CEFD10D70002030BD2DE9FF4F54
:1021E000002582B0984604462F462E464FF0010B3C
:1021F000AA462A46A94615E0202910D002F07F03FE
:10220000052B0CD202B9802202F07F03042B01D1EE
:102210002A290AD1521C0DF80310D2B201E0852AF6
:1022200004D0401C01780029E6D162B102F07F029F
:1022300044A10DF80290684600F0F3F938B101218D
:1022400088F8001000224FF00008234614E088F8B8
:102250000090F7E708F1010000F0FF0813F8010F04
:10226000202801D02A2807D1184600F07FF9282815
:1022700002D02A2800D047461878282801D0002804
:10228000E8D10FB13C44641C00273946207888B15E
:10229000282804D0292806D022280FD010E079B9A8
:1022A0006D1CEDB20CE059B925B16D1E15F0FF059E
:1022B00001D00CE00127012E32D039E049B10021D4
:1022C0004DB12C280FD020281FD028281DD07AB13E
:1022D00017E00121F4E7202820D0039B1870039811
:1022E000401C03901AE0521C4FF0010BD2B20CE0DC
:1022F000BAF1050F05D20DF80A000AF1010000F04D
:10230000FF0A0BF1010000F0FF0B012D06D1BBF11C
:10231000020F03D1761C4FF0030BF6B2641CB5E735
:102320000DF80A9007A1684600F07BF900B9002675
:1023300004980670039880F8009006B03846BDE80F
:10234000F08F0000766F6964000000002DE9F04313
:1023500000248946314DB5B0214622466B18491CF0
:10236000C9B29A760A29F9D303E000BF10F8011F19
:1023700091B101782829F9D1461C012733AA694671
:102380003046FFF7C5FE06449DF8CC0040B1012859
:1023900024D0FF2839D10BE0012035B0BDE8F0830F
:1023A0009DF8000080B334A9684600F0E7F808B152
:1023B0000220F2E7204600F033F8284434994162C5
:1023C000288B07FA04F1884328830420291988768A
:1023D000641CE4B20A2C18D90320DEE7684600F03A
:1023E00035F900F10108204600F01AF84119684655
:1023F000243100F022F9288B07FA04F10843291947
:10240000288381F81A80E3E7FFE73078292801D094
:102410000028B3D189F800400020BEE72C0100203D
:10242000024610B500200146054B05E05C18491C2A
:10243000A47EC9B22044C0B29142F7D310BD0000BF
:102440002C0100204FF08040018ACA070649D1F8CC
:10245000F02004D04FF6FF731A44C1F8F020808CAE
:102460001044C1F8F00070472C01002000EBC001BF
:1024700001EB00104FF0FF3101EB800010B581B28D
:102480004FF47A70FFF7D2F901490120C87510BDE9
:102490002C0100200246012000E05043491EC9B231
:1024A000FBD270474FF08040018A21F00101018288
:1024B0004FF6FF718185002181840248C0F8F01039
:1024C000704700002C0100202DE9F041164D2888AE
:1024D000010426D51549C0B2154F00260E54B9681F
:1024E0001248884704000FD0104800F0B9F80128BE
:1024F00001D0040014D0012C09D0022C09D0032CE7
:1025000009D0042C0CD108E0F868804708E009A045
:1025100004E00BA002E00DA000E00FA0FDF7A8FE74
:102520002E80BDE8F0810000C4000020400500209E
:102530002C010020BAAFCAFDB4EDCEF3210D0A0084
:10254000B2CECAFDB4EDCEF3210D0A00B2CECAFD63
:10255000CCABB6E0210D0A00CEB4D5D2B5BDC6A530
:10256000C5E4B5C4BAAFCAFD210D0A0010F8011FB9
:10257000202901D10028F9D1C8B270472DE9F041D6
:102580000E4600244FF00A08014634600A78A2F192
:102590003003092B0DD9113B052B0AD9582A05D038
:1025A00012F0FF0F0DD00120BDE8F081012C02D008
:1025B000F9E7412A01D34FF01008641CE4B2491C2A
:1025C000E4E70546B8F1100F01D084B112E0032C06
:1025D00001D20220E8E72878302802D1687858280C
:1025E00001D00320E0E7A41EE4B2AD1C01E004200A
:1025F000DAE70CB1641EE4B22878074630380928BF
:1026000001D8074600E0373F21464046FFF742FF2A
:10261000316807FB0010306015F8010F0028E8D181
:10262000C2E702780B789A4201D00120704712B1BC
:10263000401C491CF5E70020704702780A700278B8
:10264000002A02D0401C491CF7E77047002102789D
:102650001AB1491CC9B2401CF9E70846704700008E
:10266000F0B58DB004461E236A4602A9FFF79FFD10
:102670000190002872D19DF80000271800263E4CDA
:102680008DF800609DF8000054F8201002A8FFF7B4
:10269000C8FF38B19DF80000401CC0B28DF80000A2
:1026A0000728EFD39DF800000425344C072855D2A5
:1026B000DFE800F00404395A605F5E0030A0FDF7E7
:1026C000D7FD30A0FDF7D4FD3EA0FDF7D1FD4DA014
:1026D000FDF7CEFD5BA0FDF7CBFD6AA0FDF7C8FDC1
:1026E00078A0FDF7C5FD85A0FDF7C2FD8AA0FDF726
:1026F000BFFD8FA0FDF7BCFD93A0FDF7B9FD98A02D
:10270000FDF7B6FD9DA0FDF7B3FDA3A0FDF7B0FD5D
:10271000AFA0FDF7ADFDBCA0FDF7AAFDC7A0FDF77A
:10272000A7FDD3A01BE016A0FDF7A2FDE0A0FDF7DA
:102730009FFD8DF800600BE0216805EBC000095893
:10274000EBA0FDF795FD9DF80000401C8DF8000002
:10275000217D9DF800008142EED84EE24FE2FDF768
:1027600087FD00200DB0F0BD05A0FDF781FDC3E1A0
:1027700024E204E2E3E10000E00000202C0100205C
:102780000D0A00002D2D2D2D2D2D2D2D2D2D2D2D16
:102790002D2D2D2D2D2D2D2D2D2D2D2D55534D41E7
:1027A00052542056332E312D2D2D2D2D2D2D2D2DE6
:1027B0002D2D2D2D2D2D2D2D2D2D2D2D2D2D2D2056
:1027C0000D0A00002020202055534D415254CAC705
:1027D000D3C9414C49454E54454BBFAAB7A2B5C4D5
:1027E000D2BBB8F6C1E9C7C9B5C4B4AEBFDAB5F754
:1027F000CAD4BBA5BDBBD7E9BCFE2CCDA8B9FD2072
:102800000D0A0000CBFC2CC4E3BFC9D2D4CDA8B9BB
:10281000FDB4AEBFDAD6FACAD6B5F7D3C3B3CCD0BF
:10282000F2C0EFC3E6B5C4C8CEBACEBAAFCAFD2C6B
:10283000B2A2D6B4D0D02ED2F2B4CB2CC4E3BFC94E
:102840000D0A0000D2D4CBE6D2E2B8FCB8C4BAAFCD
:10285000CAFDB5C4CAE4C8EBB2CECAFD28D6A7B338
:10286000D6CAFDD7D62831302F3136BDF8D6C62985
:10287000A1A2D7D6B7FBB4AEA1A2BAAFCAFDC8EB2E
:102880000D0A0000BFDAB5D8D6B7B5C8D7F7CEAABB
:10289000B2CECAFD292CB5A5B8F6BAAFCAFDD7EE9F
:1028A000B6E0D6A7B3D63130B8F6CAE4C8EBB2CE9C
:1028B000CAFD2CB2A2D6A7B3D6BAAFCAFDB7B5200F
:1028C0000D0A0000BBD8D6B5CFD4CABE2ED0C2D414
:1028D000F6B2CECAFDCFD4CABEBDF8D6C6C9E8D6B8
:1028E000C3B9A6C4DC2CD0C2D4F6BDF8D6C6D7AACC
:1028F000BBBBB9A6C4DC2E0D0A000000BCBCCAF5E7
:10290000D6A7B3D63A7777772E6F70656E65647603
:102910002E636F6D0D0A000055534D415254D3D0B4
:1029200037B8F6CFB5CDB3C3FCC1EE3A0D0A0000FF
:102930003F3A202020202020BBF1C8A1B0EFD6FADA
:10294000D0C5CFA20D0A000068656C703A20202027
:10295000BBF1C8A1B0EFD6FAD0C5CFA20D0A0000D6
:102960006C6973743A202020BFC9D3C3B5C4BAAF11
:10297000CAFDC1D0B1ED0D0A0A00000069643A2019
:1029800020202020BFC9D3C3BAAFCAFDB5C4494473
:10299000C1D0B1ED0D0A0A006865783A20202020E8
:1029A000B2CECAFD3136BDF8D6C6CFD4CABE2CBA17
:1029B000F3B8FABFD5B8F12BCAFDD7D6BCB4D6B49C
:1029C000D0D0BDF8D6C6D7AABBBB0D0A0A000000FE
:1029D0006465633A20202020B2CECAFD3130BDF8B4
:1029E000D6C6CFD4CABE2CBAF3B8FABFD5B8F12B2D
:1029F000CAFDD7D6BCB4D6B4D0D0BDF8D6C6D7AAF7
:102A0000BBBB0D0A0A00000072756E74696D653AF1
:102A1000312CBFAAC6F4BAAFCAFDD4CBD0D0BCC645
:102A2000CAB13B302CB9D8B1D5BAAFCAFDD4CBD0DE
:102A3000D0BCC6CAB13B0D0A0A000000C7EBB0B457
:102A4000D5D5B3CCD0F2B1E0D0B4B8F1CABDCAE4A8
:102A5000C8EBBAAFCAFDC3FBBCB0B2CECAFDB2A2CE
:102A6000D2D4BBD8B3B5BCFCBDE1CAF82E0D0A0068
:102A70002D2D2D2D2D2D2D2D2D2D2D2D2D2D2D2D86
:102A80002D2D2D2D2D2D2D2D2D2D414C49454E54C7
:102A9000454B2D2D2D2D2D2D2D2D2D2D2D2D2D2D30
:102AA0002D2D2D2D2D2D2D2D2D2D2D200D0A000000
:102AB0002D2D2D2D2D2D2D2D2D2D2D2D2D2D2D2D46
:102AC0002D2D2D2D2D2D2D2D2DBAAFCAFDC7E5B5E0
:102AD000A52D2D2D2D2D2D2D2D2D2D2D2D2D2D2DAE
:102AE0002D2D2D2D2D2D2D2D2D2D2D2D200D0A0093
:102AF00025730D0A0000000042A0FDF7B9FB8DF818
:102B0000006016E0216805EBC0000BAB08580AAA6C
:102B100002A9FFF763FB9DF80010206850F83120F0
:102B200002A948A0FDF7A4FB9DF80000401C8DF809
:102B30000000217D9DF800008142E3D85DE0AFF206
:102B4000C030FDF795FB6A4602A93846FFF7E0FA68
:102B50009DF80000002843D101A902A8FFF70EFD4F
:102B60008DF8000010B104283AD102E03AA0019992
:102B70001CE03CA0FDF77CFB0120E0753DE038A0A7
:102B8000FDF776FB6A4602A93846FFF7C1FA9DF8C1
:102B9000000028BB01A902A8FFF7F0FC8DF8000097
:102BA00010B104281CD104E033A00199FDF760FBAB
:102BB00023E034A0FDF75CFBE6751EE028A0FDF7DE
:102BC00057FB6A4602A93846FFF7A2FA9DF80000B3
:102BD00030B901A902A8FFF7D1FC8DF8000008B1B7
:102BE0000220BFE5019810F0FF0084F8EC0001D04E
:102BF00029A000E02FA0FDF73BFB19A0AFE50120C5
:102C0000B0E500002D2D2D2D2D2D2D2D2D2D2D2D13
:102C10002D2D2D2D2D2D2D2D2D2D2D2D2DBAAFCA38
:102C2000FD204944202D2D2D2D2D2D2D2D2D2D2DEB
:102C30002D2D2D2D2D2D2D2D2D2D2D2D2D2D2D2DC4
:102C4000200D0A0025732069642069733A0D0A304B
:102C500058253038580D0A004845583A30582558FC
:102C60000D0A00003136BDF8D6C6B2CECAFDCFD4AB
:102C7000CABE210D0A0000004445433A256C750D7B
:102C80000A0000003130BDF8D6C6B2CECAFDCFD49E
:102C9000CABE210D0A00000052756E2054696D6590
:102CA0002043616C63756C6174696F6E204F4E0DCB
:102CB0000A00000052756E2054696D652043616CF6
:102CC00063756C6174696F6E204F46460D0A000093
:102CD000016070470000000000000000002F0000AD
:102CE00000000700070000147F147F1400242A7FCF
:102CF0002A1200626408132300364955225000004E
:102D00000503000000001C224100000041221C00BD
:102D10000014083E08140008083E0808000000A03F
:102D2000600000080808080800006060000000203B
:102D300010080402003E5149453E0000427F400019
:102D4000004261514946002141454B31001814129F
:102D50007F10002745454539003C4A49493000016C
:102D60007109050300364949493600064949291EBB
:102D7000000036360000000056360000000814221D
:102D8000410000141414141400004122140800021D
:102D90000151090600324959513E007C1211127C42
:102DA000007F49494936003E41414122007F41416F
:102DB000221C007F49494941007F09090901003E61
:102DC0004149497A007F0808087F0000417F41009F
:102DD000002040413F01007F08142241007F404015
:102DE0004040007F020C027F007F0408107F003EFD
:102DF0004141413E007F09090906003E4151215EE3
:102E0000007F091929460046494949310001017FDF
:102E10000101003F4040403F001F2040201F003F75
:102E20004038403F00631408146300070870080727
:102E300000615149454300007F41410000552A553A
:102E40002A55000041417F000004020102040040B5
:102E500040404040000001020400002054545478D7
:102E6000007F4844443800384444442000384444F7
:102E7000487F00385454541800087E090102001895
:102E8000A4A4A47C007F080404780000447D4000D2
:102E9000004080847D00007F102844000000417FB6
:102EA0004000007C04180478007C08040478003892
:102EB0004444443800FC242424180018242418FC1A
:102EC000007C0804040800485454542000043F4483
:102ED0004020003C4040207C001C2040201C003C46
:102EE0004030403C004428102844001CA0A0A07C96
:102EF000004464544C4414141414141400000000CE
:102F0000000000000000000000000000000000F8C9
:102F100000000000000000333000000000100C062C
:102F2000100C0600000000000000000040C07840C7
:102F3000C0784000043F04043F040400007088FC93
:102F400008300000001820FF211E0000F008F000EB
:102F5000E018000000211C031E211E0000F008885C
:102F6000700000001E2123241927211010160E00C6
:102F7000000000000000000000000000000000E071
:102F80001804020000000007182040000002041886
:102F9000E00000000040201807000000404080F0E2
:102FA000804040000202010F01020200000000F018
:102FB000000000000101011F0101010000000000EC
:102FC0000000000080B07000000000000000000061
:102FD00000000000000101010101010100000000EA
:102FE0000000000000303000000000000000000081
:102FF00080601804006018060100000000E010085E
:103000000810E000000F102020100F00001010F832
:10301000000000000020203F202000000070080871
:1030200008887000003028242221300000300888F1
:10303000884830000018202020110E000000C02019
:1030400010F8000000070424243F240000F808883A
:10305000880808000019212020110E0000E01088C7
:1030600088180000000F112020110E0000380808F9
:10307000C83808000000003F000000000070880809
:1030800008887000001C222121221C0000E010088A
:103090000810E0000000312222110F00000000C0E3
:1030A000C000000000000030300000000000008080
:1030B0000000000000008060000000000000804070
:1030C0002010080000010204081020004040404089
:1030D00040404000040404040404040000081020DC
:1030E0004080000000201008040201000070480821
:1030F0000808F0000000003036010000C030C82889
:10310000E810E0000718272423140B000000C03843
:10311000E0000000203C23020227382008F88888BD
:1031200088700000203F202020110E00C0300808C9
:1031300008083800071820202010080008F80808A0
:103140000810E000203F202020100F0008F8888899
:10315000E8081000203F20202320180008F8888865
:10316000E8081000203F200003000000C0300808DD
:103170000838000007182020221E020008F8080066
:103180000008F808203F210101213F20000808F82D
:10319000080800000020203F202000000000080850
:1031A000F8080800C08080807F00000008F888C010
:1031B00028180800203F20012638200008F80800C1
:1031C00000000000203F20202020300008F8F800F8
:1031D000F8F80800203F003F003F200008F830C00A
:1031E0000008F808203F200007183F00E0100808FA
:1031F0000810E0000F10202020100F0008F8080829
:103200000808F000203F210101010000E01008083B
:103210000810E0000F18242438504F0008F8888860
:1032200088887000203F2000030C30200070880840
:10323000080838000038202121221C00180808F84E
:10324000080818000000203F2000000008F80800CF
:103250000008F808001F202020201F0008788800A0
:1032600000C83808000007380E010000F80800F810
:103270000008F800033C0700073C030008186880BA
:103280008068180820302C03032C30200838C80030
:10329000C83808000000203F20000000100808087F
:1032A000C83808002038262120201800000000FE21
:1032B000020202000000007F40404000000C30C0CD
:1032C00000000000000000010638C00000020202F9
:1032D000FE000000004040407F00000000000402AB
:1032E00002020400000000000000000000000000D6
:1032F00000000000808080808080808000020204C6
:1033000000000000000000000000000000008080BD
:10331000808000000019242222223F2008F800802B
:1033200080000000003F112020110E0000000080EE
:1033300080800000000E112020201100000000807D
:103340008088F800000E112020103F2000008080AF
:1033500080800000001F222222221300008080F0C3
:10336000888888180020203F2020000000008080EE
:1033700080808000006B94949493600008F8008033
:1033800080800000203F210000203F20008098988E
:10339000000000000020203F2020000000000080EE
:1033A0009898000000C08080807F000008F800002E
:1033B00080808000203F24022D302000000808F883
:1033C000000000000020203F20200000808080803E
:1033D00080808000203F20003F20003F80800080D0
:1033E00080800000203F210000203F2000008080DE
:1033F00080800000001F202020201F00808000808F
:103400008000000080FFA12020110E00000000803D
:1034100080808000000E112020A0FF80808080002E
:103420008080800020203F2120000100000080805B
:10343000808080000033242424241900008080E050
:10344000808000000000001F20200000808000001D
:1034500000808000001F202020103F2080808000FE
:103460000080808000010E3008060100808000800E
:10347000008080800F300C030C300F000080800033
:10348000808080000020312E0E312000808080005E
:103490000080808080818E7018060100008080800E
:1034A000808080000021302C2221300000000000AC
:1034B000807C020200000000003F4040000000004D
:1034C000FF00000000000000FF0000000002027C7E
:1034D000800000000040403F0000000000060101A5
:1034E000020204040000000000000000303132330A
:1034F0003435363738394142434445464030580028
:103500003031323334353637383961626364656659
:1035100040307800040000080000000000000002B5
:1035200000010000100000003F000000646563001F
:103530006964000072756E74696D650068656C7011
:10354000000000006C69737400000000686578007A
:10355000766F69642077726974655F61646472284C
:1035600075333220616464722C7533322076616C5D
:103570002900000075333220726561645F61646404
:1035800072287533322061646472290075696E7423
:10359000385F742050535F536574416464722875BA
:1035A000696E7433325F742061646472293B202039
:1035B0002F2FC9E8D6C3C4A3BFE9B5D8D6B700003A
:1035C00075696E74385F742050535F577269746503
:1035D0005265672875696E74385F74205265674E4E
:1035E000756D2C75696E74385F742044415441299F
:1035F0003B2F2FD0B4CFB5CDB3BCC4B4E6C6F700D3
:1036000075696E74385F742050535F5265616453FE
:103610007973506172612853797350617261202A05
:1036200070293B202F2FB6C1CFB5CDB3BBF9B1BEAA
:10363000B2CECAFD0000000075696E74385F742058
:1036400050535F56616C696454656D706C65746548
:103650004E756D2875696E7431365F74202A566117
:103660006C69644E293B2F2FB6C1D3D0D0A7C4A319
:10367000B0E5B8F6CAFD000098360008000000204A
:10368000200200006C010008A03700082002002082
:10369000480A0000C80100081184A24A0440090138
:1036A000020304060708091AFF0151200F0202FA5B
:1036B000FAAAAAFFFFAAAAFAFA0202100F4272722D
:1036C0003A7A424B5B5262621377661814203C1CB4
:1036D000FFFFB0B424243F3FE4E42424200202038B
:1036E00039300B01051D59C1FF7F010101500CF854
:1036F000F8484C4F4B4A4848F8F84CFFFF44012922
:10370000622C202424381009243010FFFF10F0F020
:103710001010081C1F0B0C0D4F6E341C0F23607F04
:103720003F180880C060F8FF07023546E0703C1C77
:1037300008D00D7F7F0406033F7F40404078783CEF
:103740000204062129C869CC1328351B083C041A39
:1037500044041A30041A4C041A2C041A3404134971
:103760001D1B08740813D12C1B0850081341121B91
:1037700008C008131110120812361B08F5081A8C1D
:103780001013C5111B0838101AFCAF136D24140850
:10379000191E1B08AD041AC90C1A066F01DC0000C3
:0400000508000131BD
:00000001FF
